:020000040800F2
:10000000A8040020650100086D0100086F010008C8
:10001000710100087301000875010008000000006C
:100020000000000000000000000000007701000850
:1000300079010008000000007B0100087D01000834
:100040007F0100087F0100087F0100087F01000890
:100050007F0100087F0100087F0100087F01000880
:100060007F0100087F0100087F0100087F01000870
:100070007F0100087F0100087F0100087F01000860
:100080007F0100087F0100087F0100087F01000850
:100090007F0100087F0100087F0100087F01000840
:1000A0007F0100087F0100087F0100087F01000830
:1000B0007F0100087F0100087F0100087F01000820
:1000C0007F0100087F0100087F0100087F01000810
:1000D0007F0100087F0100087F0100087F01000800
:1000E0007F0100087F0100087F0100080000000078
:1000F0000000000000000000000000000000000000
:1001000000000000000000007F0100087F010008DF
:100110007F0100087F0100087D1200087F010008B0
:100120007F0100087F0100087F0100087F010008AF
:100130007F0100087F0100087F0100087F0100089F
:100140007F0100087F0100087F0100087F0100088F
:10015000DFF80CD000F020F80048004779140008C0
:10016000A80400200648804706480047FEE7FEE74F
:10017000FEE7FEE7FEE7FEE7FEE7FEE7FEE7FEE757
:100180001112000851010008421C10F8011B00293F
:10019000FBD1801A70470000064C074D06E0E0686E
:1001A00040F0010394E8070098471034AC42F6D3BE
:1001B000FFF7D2FF041C0008241C000870B5054698
:1001C0000E4600241348008800EB4000124901EB62
:1001D000C00410480088401C0E4908802560A68095
:1001E0000020A060E060FF2211464C2000F0CCFE11
:1001F000E0800A48006820B90848046008480460A4
:1002000007E007480068846005480068E06004482B
:10021000046070BD0C0000203000002000000020B1
:100220000400002008B50748074991F9001030F88C
:10023000110067233222D4210090C52000F076F906
:1002400008BD0000120000201100002010B5044677
:10025000074804600121074801F027F800BF04485F
:1002600000680028FBD10021024801F01EF810BDF3
:1002700018000020001000402DE9F04706460F4608
:1002800091469A460FFA89F40025A8464CE07A195F
:1002900091B2321990B2524600F0A3F93A1991B2D4
:1002A000721990B2524600F09CF93A1991B2721B41
:1002B00090B2524600F095F97A1991B2321B90B281
:1002C000524600F08EF97A1B91B2321B90B2524620
:1002D00000F087F93A1B91B2721B90B2524600F0BF
:1002E00080F93A1B91B2721990B2524600F079F936
:1002F0007A1B91B2321990B2524600F072F9B8F1FD
:10030000000F06DC681C05B26800401C40440FFA70
:1003100080F8B8F1000F07DD601E04B26000401CD9
:10032000A8EB00000FFA80F8AC42B0DABDE8F08725
:10033000F8B50446A58AE0880090A388E18A28469B
:10034000226800F013F980221146104600F01CFECE
:1003500007462068FFF718FFA18A01EBC000401E86
:1003600086B2E18A10318AB2691C88B23B463146B6
:1003700000F024F980221146104600F005FE0746E1
:100380002068FFF701FFA18A01EBC000401E86B282
:10039000E18A11318AB2A91C88B23B46314600F08D
:1003A0000DF980221146104600F0EEFD0746206848
:1003B000FFF7EAFE05EBC00086B2E08A0F3082B29A
:1003C000E18A3B46304600F01AF980221146104679
:1003D00000F0DAFD07462068FFF7D6FE05EBC00007
:1003E000401C86B2E08A103082B2E08A401C81B2A2
:1003F0003B46304600F003F9F8BD2DE9F0410246D6
:1004000000250026002000230024002791F803C0C7
:100410000CF00F0591F803C00CF0100CBCF1000FAC
:1004200003D091F802C04CEA050591F800C0BCF178
:10043000000F31D0146800202BE04FF0010C0CFAB3
:1004400000F3B1F800C00CEA03069E4220D18300FD
:100450004FF00F0C0CFA03F7BC4305FA03FC4CEA0F
:10046000040491F803C0BCF1280F06D14FF0010C31
:100470000CFA00FCC2F814C00AE091F803C0BCF109
:10048000480F05D14FF0010C0CFA00FCC2F810C067
:10049000401C0828D1D31460B1F800C0BCF1FF0F94
:1004A00034DD546800202EE000F1080C4FF0010804
:1004B00008FA0CF3B1F800C00CEA03069E4221D101
:1004C00083004FF00F0C0CFA03F7BC4305FA03FC52
:1004D0004CEA040491F803C0BCF1280F05D100F1E7
:1004E000080C08FA0CF8C2F8148091F803C0BCF1AB
:1004F000480F07D100F1080C4FF0010808FA0CF87A
:10050000C2F81080401C0828CED35460BDE8F081AA
:100510000246002093680B400BB1012000E0002050
:1005200070470AB1016100E0416170472DE9F04771
:1005300004460D4616461F46DDF820903B463246DF
:100540002946204600F006FA4FF0000805E01FFAA1
:1005500089F000F0A4FA08F10108281B401CB91B1F
:10056000491C48434045F2D2BDE8F0872DE9F843E5
:1005700006460F4614469846DDF82090002518E000
:1005800020780A2802D020780D2801D1641C10E0C0
:10059000207880280CDACDF80090227806EBC5018F
:1005A00088B24346394600F09DF9641C681CC5B208
:1005B00000BF20780028E3D1BDE8F8832DE9F041A1
:1005C00007460C4615461E4604E032462946384684
:1005D00000F007F83846791C8FB2A042F5DDBDE87F
:1005E000F08170B505460C4616462346224629463C
:1005F000284600F0AFF9B0B200F051FA70BD2DE915
:10060000F04107460C4615461E4604E03246214698
:100610003846FFF7E6FF2046611C8CB2A842F5DDA4
:10062000BDE8F08110B5032380221021AC4800F012
:100630003DFA032340221021A94800F037FA032392
:1006400020221021A64800F031FA0323102211467F
:10065000A34800F02BFA032308221021A04800F041
:1006600025FA0323042210219D4800F01FFA0323DA
:10067000022210219A4800F019FA032301221021C6
:10068000974800F013FA03234FF480621021944836
:1006900000F00CFA03234FF400621021904800F0A0
:1006A00005FA03234FF4004210218D4800F0FEF9B3
:1006B00003234FF480521021894800F0F7F90323F7
:1006C0004FF480721021864800F0F0F901221102E7
:1006D0008348FFF726FF6420FFF7B8FD00224FF4A0
:1006E00080717F48FFF71DFF6420FFF7AFFD0122F7
:1006F00011027B48FFF715FF6420FFF7A7FDCF200D
:1007000000F0C6F9812000F0CAF9302000F0C7F9E6
:10071000ED2000F0BDF946F2034000F0C0F941F2CF
:10072000812000F0BCF9E82000F0B2F94FF4054058
:1007300000F0B5F9792000F0B2F9CB2000F0A8F96B
:1007400043F62C1000F0ABF9342000F0A8F9022099
:1007500000F0A5F9F72000F09BF9202000F064F9E3
:10076000EA2000F095F9002000F099F9B12000F09E
:100770008FF91B2000F093F9C02000F089F92E209A
:1007800000F052F9C12000F083F9122000F04CF97A
:10079000C52000F07DF945F2190000F080F9C7206E
:1007A00000F076F9902000F03FF9362000F070F963
:1007B000A82000F039F9B62000F06AF940F6A2202E
:1007C00000F06DF9F22000F063F9002000F02CF940
:1007D000262000F05DF9012000F026F9E02000F06D
:1007E00057F940F6277000F05AF942F20B3000F04A
:1007F00056F940F6057000F052F945F2744000F0E9
:100800004EF944F20A5000F04AF941F20A7000F041
:1008100046F941F60E4000F042F9082000F03FF999
:10082000E12000F035F940F61A0000F038F941F601
:10083000036000F034F940F6057000F030F942F63C
:10084000256000F02CF943F6013000F028F940F261
:10085000056000F024F942F2335000F020F90F2037
:1008600000F01DF93A2000F013F9552000F0DCF8F3
:10087000362000F00DF9002000F0D6F8F62000F048
:1008800007F94FF4987000F00AF9292000F000F9F8
:10089000112000F0FDF84FF4FA70FFF7D7FC2A2082
:1008A00000F0F6F8002000F0FAF8EF2000F0F7F87A
:1008B0002B2000F0EDF8002000F0F1F840F23F109E
:1008C00000F0EDF82C2000F0E3F8002404E04FF6EF
:1008D000FF7000F0E4F8641CB4F5963FF7D310BD48
:1008E000001801402DE9F05F06460C461746984671
:1008F000DDF828B004F10F03F11D2246304600F068
:1009000029F8002520E0A7F1200005EB0010104990
:1009100011F800A04FF0000912E00AF080008028D2
:1009200004D11FFA88F000F0BAF803E01FFA8BF048
:1009300000F0B5F84FEA4A604FEA106A09F1010980
:10094000B9F1080FE9D36D1C102DDCD3BDE8F09F81
:10095000041600082DE9F04104460D4616461F46D0
:100960002A2000F095F8A0B200F099F8A8B200F0A3
:1009700096F82B2000F08CF8B0B200F090F8B8B2E6
:1009800000F08DF82C2000F083F8BDE8F081000025
:1009900070B505460C4600224FF400412148FFF790
:1009A000C0FD2A464FF480511E48FFF7BAFD0122D0
:1009B00091021C48FFF7B5FD1A480C30006800F49E
:1009C0007F4018490C3108600846006840EA14204E
:1009D00008600022C9141348FFF7A3FD0122D102C9
:1009E0001048FFF79EFD0F480C30006800F47F4070
:1009F0000C490C31086008460068E1B20843094917
:100A00000C3108600022C9140648FFF78AFD012254
:100A1000D1020448FFF785FD0122D1030148FFF709
:100A200080FD70BD0018014010B5044600224FF44F
:100A300000411648FFF775FD012211031348FFF727
:100A400070FD012291021148FFF76BFD0F480C3039
:100A5000006800F47F400D490C31086008460068CA
:100A6000E1B2084309490C3108600022C914074863
:100A7000FFF757FD0122D1020448FFF752FD012282
:100A8000D1030248FFF74DFD10BD000000180140E2
:100A900010B5044621460020FFF77AFF10BD10B5BF
:100AA000044621460120FFF773FF10BDF8B5074645
:100AB0000C4615461E468DF80340ADF800508DF8E3
:100AC000026069463846FFF798FCF8BD10B500F0A3
:100AD00085F8002000F0D0F94FF4803000F0A6F93E
:100AE00000F036FA0446012C27D1402000F018FA15
:100AF0004FF4C06000F0E4F9012000F0DBF90421BC
:100B0000880300F0FDF94FF4E011200400F0EAF949
:100B1000012000F0E1F9022000F00EFA002000F0C0
:100B200079F9A00200F0AEF9002000F0B7F900BF9B
:100B300000F068F90828FBD101E000BFFEE710BD16
:100B40003EB50446684600F029FC1248B4FBF0F0BC
:100B5000401E80B2ADF800004FF47A70ADF804008A
:100B600069460D4800F0C8FB012211460A4800F012
:100B7000B9FB0121084800F098FB362000F01F0265
:100B8000012191404209920002F1E022C2F80011D5
:100B900000BF3EBD40420F000010004029B1064A90
:100BA000D2690243044BDA6104E0034AD26982430A
:100BB000014BDA61704700000010024029B1064A7B
:100BC00092690243044B9A6104E0034A92698243AA
:100BD000014B9A6170470000001002401348006802
:100BE00040F001001149086008464068104908407B
:100BF0000E494860084600680E4908400B490860E5
:100C00000846006820F4802008600846406820F408
:100C1000FE0048600846006820F0A05008604FF4CD
:100C20007F0088600020C86270470000001002400A
:100C30000000FFF0FFFFF6FE2DE9F0410021002249
:100C4000002500230026002400278C46DFF8608161
:100C5000D8F8048008F00C0121B1042907D0082934
:100C600059D109E0DFF84C81C0F8008058E0DFF886
:100C70004881C0F8008053E0DFF83481D8F8048060
:100C800008F47012DFF82881D8F8048008F4803561
:100C9000920C0D2A01D0921C00E0062235B9DFF833
:100CA0001C8102FB08F8C0F8008033E0DFF8008107
:100CB000D8F82C8008F48036DFF8F480D8F82C803F
:100CC00008F00F0808F1010446B9DFF8EC80B8FB22
:100CD000F4F808FB02F8C0F800801BE0DFF8D080D1
:100CE000D8F82C80C8F3031808F10107DFF8C0809A
:100CF000D8F82C80C8F3032808F1020CDFF8B8807C
:100D0000B8FBF7F808FB0CF8B8FBF4F808FB02F89E
:100D1000C0F8008004E0DFF89C80C0F8008000BFCD
:100D200000BFDFF88C80D8F8048008F0F0010909D2
:100D3000DFF88C8018F80130D0F8008028FA03F82A
:100D4000C0F80480DFF86880D8F8048008F4E06117
:100D5000090ADFF86C8018F80130D0F8048028FA0E
:100D600003F8C0F80880DFF84880D8F8048008F459
:100D70006051C90ADFF8488018F80130D0F80480C3
:100D800028FA03F8C0F80C80DFF82480D8F8048033
:100D900008F44041890BDFF82C8018F80130D0F8B6
:100DA0000C80B8FBF3F8C0F81080BDE8F0810000BB
:100DB0000010024000127A0040787D0100093D00D9
:100DC0001C0000202C00002010B50146002200234A
:100DD00000204A11012A02D1094C236806E0022AA8
:100DE00002D1074C236A01E0054C636A01F01F023F
:100DF000012494401C400CB1012000E0002010BDF3
:100E0000001002400248406800F00C0070470000EB
:100E10000010024001460020034A506820F0F00014
:100E200008435060704700000010024011490968F3
:100E300021F480310F4A11601146096821F48021A4
:100E40001160B0F5803F03D0B0F5802F0ED106E0E1
:100E50000849096841F48031064A116007E00549F4
:100E6000096841F4A021034A116000E000BF00BFFF
:100E70007047000000100240014908607047000000
:100E80000000424201460020034A506820F4E0601E
:100E900008435060704700000010024001460020E7
:100EA000034A506820F4605040EAC1005060704727
:100EB000001002400149886670470000000042426D
:100EC00001460020034AD06A20F470600843D062D3
:100ED000704700000010024001490866704700009A
:100EE0000000424202460020044B586820F474106F
:100EF00042EA01031843014B58607047001002405A
:100F000002460020044BD86A044B184042EA010311
:100F10001843014BD862704700100240F0FFFEFFFB
:100F200001460020034AD06A20F0F0000843D06256
:100F3000704700000010024001460020034A50683C
:100F400020F003000843506070470000001002408A
:100F500038B5002000900024002500BF3120FFF7A5
:100F600033FF05460098401C00900098B0F5A06F34
:100F700001D0002DF2D03120FFF726FF08B1012467
:100F800000E00024204638BD10B50346D8108C1070
:100F900040EA4410D41040EAC42010BD2DE9F041CD
:100FA00004212648FFF7B4FA08B9012000E0002028
:100FB000044640212248FFF7ABFA08B9012000E0BF
:100FC0000020054610211D48FFF7A2FA08B90120AC
:100FD00000E00020064620211A48FFF799FA08B9D8
:100FE000012000E00020074614B90DB907B9C6B1C9
:100FF00015480078A8B90120134908702CB125B113
:101000001FB116B10520BDE8F0810CB10120FAE74F
:101010000DB10220F7E70FB10320F4E75EB1042021
:10102000F1E744B93DB937B92EB90748007810B196
:101030000020054908700020E5E700000014014089
:1010400000080140000C01401000002010B50648C7
:101050000468A2228B210F20FFF796FFE080204634
:10106000FFF766F910BD00000000002070B50025F4
:101070001B4804682AE01B48008885420FD11948A4
:101080000088194991F90010884208D0FF221146C2
:101090004C20FFF779FFE0802046FFF749F912481E
:1010A00090F9000085420FD10E4800880E4991F951
:1010B0000010884208D0A2228B210F20FFF764FF86
:1010C000E0802046FFF734F9A4686D1C07480088CB
:1010D0008542D0DB044890F900000249088070BDC9
:1010E000000000200E000020110000200C00002055
:1010F00010B500F001F810BD0CB500200190009073
:101100003F48006840F480303D49086000BF3C48DB
:10111000006800F4003000900198401C0190009895
:1011200018B90198B0F5A06FF1D13548006800F406
:10113000003010B10120009001E0002000900098E4
:1011400001285CD12F48006840F010002D4908604C
:101150000846006820F0030008600846006840F078
:1011600002000860264840682549486008464068F3
:1011700048600846406840F4806048600846C06A9D
:10118000214908401E49C8620846C06A1F490843F1
:101190001B49C8620846006840F08060086000BFD4
:1011A0001748006800F000600028F9D01448406833
:1011B00020F47C10124948600846406840F4E8106A
:1011C00048600846006840F08070086000BF0C4826
:1011D000006800F000700028F9D00948406820F04D
:1011E0000300074948600846406840F00200486034
:1011F00000BF0348406800F00C000828F9D10CBD7E
:10120000001002400020024000F0FEFF44060100F2
:1012100010B51648006840F00100144908600846FF
:101220004068134908401149486008460068114960
:1012300008400E4908600846006820F480200860D5
:101240000846406820F4FE0048600846006820F028
:10125000A05008604FF47F0088600020C862FFF74C
:1012600047FF4FF000600449086010BD00100240C5
:101270000000FFF0FFFFF6FE08ED00E010B50121D1
:10128000064800F01EF840B10121044800F00AF8B9
:1012900003480068401E0249086010BD001000406D
:1012A00018000020CA430282704721B1028842F030
:1012B0000102028004E002884FF6FE731A400280A9
:1012C000704730B50246002000230024158A05EA45
:1012D0000103958905EA010413B10CB1012000E076
:1012E000002030BD1AB183890B43838102E08389DA
:1012F0008B43838170470000002202881D4B984277
:101300000ED01D4B98420BD0B0F1804F08D01B4B34
:10131000984205D01A4B984202D01A4B984204D1F9
:101320004FF68F731A404B881A43174B984207D0D9
:10133000164B984204D04FF6FF431A40CB881A430D
:1013400002808B8883850B8803850A4B98420BD0DB
:10135000094B984208D00E4B984205D00D4B98424D
:1013600002D00D4B984201D10B7A03860123838270
:1013700070470000002C0140003401400004004090
:1013800000080040000C0040001000400014004025
:101390000040014000440140004801404FF6FF7109
:1013A000818000210180C18041800172704700006E
:1013B0001CB5114804681420ADF80000C820ADF831
:1013C00002006420ADF804003220ADF806000FE002
:1013D00000982061019860612046FEF7A9FFBDF8E2
:1013E0000600BDF80010084480B2ADF80600A468FD
:1013F000002CEDD11CBD00000000002010B5FFF74F
:10140000CDFD0446012C0FD112480078401E40B299
:1014100010490870084690F90000002801DA002001
:101420000870FFF723FE10E0022C0ED10948007867
:10143000401C40B207490870084690F90000032894
:1014400001DB02200870FFF711FE042C01D1FEF72A
:10145000E9FE10BD1100002002E008C8121F08C1FB
:10146000002AFAD170477047002001E001C1121F25
:10147000002AFBD17047000086B0FFF727FB01214F
:101480007C20FFF79BFB01211020FFF787FB01A8C1
:10149000FFF7D2FB0498FFF753FB032340224821B8
:1014A0004A48FFF703FB0323202248214848FFF75F
:1014B000FDFA0323142248214648FFF7F7FA0323D5
:1014C0004FF4005248214448FFF7F0FAFFF7AAF81A
:1014D000002413E000250CE0FA2211461046FFF725
:1014E00053FD0646324629462046FFF77AF8681C27
:1014F00085B2B5F5A07FEFDB601C84B2F02CE9DB90
:10150000FA2211461046FFF73FFD04464FF4A07340
:101510000022F02100901046FFF708F80022114643
:10152000FF20FFF731FD044623463222A021782018
:10153000FEF7A2FE0022FF211046FFF725FD04461C
:101540002346A022EF210020FFF738F8002023498E
:1015500008702349088023490880234908706122C4
:101560001921E620FFF710FD044621461FA0FEF7D3
:1015700025FE0022FF211046FFF706FD0446214606
:101580001CA0FEF71BFEFF2200210846FFF7FCFC13
:101590000446214619A0FEF711FEFFF709FFFFF7E9
:1015A00055FDFF2200210846FFF7EEFC04464FF4EC
:1015B000A073E622642100900020FEF7B7FF04E04C
:1015C000FFF71CFF6420FEF741FEF9E70008014029
:1015D000000C0140001401400010014011000020E7
:1015E0000C0000200E0000201000002050696E6BDF
:1015F00000000000477265656E000000426C756572
:1016000000000000000000000000000000000000DA
:10161000000000000000183C3C3C18181800181886
:101620000000000000666666240000000000000064
:10163000000000000000006C6CFE6C6C6CFE6C6CBA
:101640000000000018187CC6C2C07C0686C67C1844
:101650001800000000000000C2C60C183060C686EA
:10166000000000000000386C6C3876DCCCCCCC7606
:10167000000000000030303060000000000000007A
:101680000000000000000C18303030303030180CF2
:1016900000000000000030180C0C0C0C0C0C183072
:1016A000000000000000000000663CFF3C660000F7
:1016B00000000000000000000018187E181800004C
:1016C00000000000000000000000000000181818D2
:1016D0003000000000000000000000FE00000000DC
:1016E00000000000000000000000000000001818CA
:1016F000000000000000000002060C183060C080EE
:101700000000000000007CC6C6CED6D6E6C6C67C69
:101710000000000000001838781818181818187EF3
:101720000000000000007CC6060C183060C0C6FE39
:101730000000000000007CC606063C060606C67CCB
:101740000000000000000C1C3C6CCCFE0C0C0C1EBD
:10175000000000000000FEC0C0C0FC0E0606C67CF3
:101760000000000000003860C0C0FCC6C6C6C67CD1
:10177000000000000000FEC606060C1830303030B5
:101780000000000000007CC6C6C67CC6C6C6C67C7B
:101790000000000000007CC6C6C67E0606060C7867
:1017A00000000000000000001818000000181800D9
:1017B0000000000000000000181800000018183099
:1017C00000000000000000060C18306030180C0605
:1017D00000000000000000000000FE0000FE00000D
:1017E000000000000000006030180C060C1830608B
:1017F0000000000000007CC6C60C1818180018185D
:10180000000000000000007CC6C6DEDEDEDCC07C1E
:1018100000000000000010386CC6C6FEC6C6C6C672
:10182000000000000000FC6666667C66666666FC7A
:101830000000000000003C66C2C0C0C0C0C2663CE0
:10184000000000000000F86C6666666666666CF86C
:10185000000000000000FE6662687868606266FE54
:10186000000000000000FE6662687868606060F05A
:101870000000000000003C66C2C0C0DEC6C6663A7A
:10188000000000000000C6C6C6C6FEC6C6C6C6C664
:101890000000000000003C18181818181818183C10
:1018A0000000000000001E0C0C0C0C0CCCCCCC7802
:1018B000000000000000E6666C6C78786C6666E6F6
:1018C000000000000000F06060606060606266FE22
:1018D000000000000000C6EEFEFED6C6C6C6C6C6A4
:1018E000000000000000C6E6F6FEDECEC6C6C6C694
:1018F000000000000000386CC6C6C6C6C6C66C38FC
:10190000000000000000FC6666667C60606060F0BD
:101910000000000000007CC6C6C6C6C6C6D6DE7C77
:101920000C0E00000000FC6666667C6C666666E66F
:101930000000000000007CC6C660380C06C6C67CED
:101940000000000000007E7E5A1818181818183C75
:10195000000000000000C6C6C6C6C6C6C6C6C67C15
:10196000000000000000C6C6C6C6C6C6C66C381059
:10197000000000000000C6C6C6C6C6D6D6FE6C6C07
:10198000000000000000C6C66C6C38386C6CC6C61F
:10199000000000000000666666663C181818183CD7
:1019A000000000000000FEC6860C183060C2C6FEB3
:1019B0000000000000003C30303030303030303C2F
:1019C0000000000000000080C0E070381C0E06021D
:1019D0000000000000003C0C0C0C0C0C0C0C0C3C2F
:1019E0000000000010386CC600000000000000007D
:1019F00000000000000000000000000000000000E7
:101A000000FF00003030180000000000000000005F
:101A1000000000000000000000780C7CCCCCCC76EC
:101A2000000000000000E06060786C66666666DCBE
:101A30000000000000000000007CC6C0C0C0C67CE2
:101A40000000000000001C0C0C3C6CCCCCCCCC7614
:101A50000000000000000000007CC6FEC0C0C67C84
:101A6000000000000000386C6460F060606060F0AE
:101A700000000000000000000076CCCCCCCCCC7C78
:101A80000CCC78000000E060606C7666666666E606
:101A90000000000000001818003818181818183C2A
:101AA0000000000000000606000E060606060606F8
:101AB00066663C000000E06060666C78786C66E604
:101AC0000000000000003818181818181818183CE2
:101AD000000000000000000000ECFED6D6D6D6D6EE
:101AE000000000000000000000DC666666666666B6
:101AF0000000000000000000007CC6C6C6C6C67C10
:101B0000000000000000000000DC66666666667C7F
:101B10006060F000000000000076CCCCCCCCCC7C27
:101B20000C0C1E000000000000DC7662606060F0BB
:101B30000000000000000000007CC660380CC67C7D
:101B4000000000000000103030FC30303030361C17
:101B5000000000000000000000CCCCCCCCCCCC7647
:101B600000000000000000000066666666663C1823
:101B7000000000000000000000C6C6C6D6D6FE6CFD
:101B8000000000000000000000C66C3838386CC649
:101B9000000000000000000000C6C6C6C6C6C67E23
:101BA000060CF8000000000000FECC183060C6FEF5
:101BB0000000000000000E18181870181818180EF1
:101BC000000000000000181818180018181818183D
:101BD000000000000000701818180E18181818706F
:101BE00000000000000076DC0000000000000000A3
:101BF000000000000000000010386CC6C6C6FE00E1
:101C000000000000241C000800000020300000003C
:101C100058140008541C000830000020780400000C
:101C20006814000800000000000000000000000030
:101C3000000000000000DC60E00700F80000000089
:101C40000000000001020304010203040607080962
:041C5000020406087C
:040000050800016589
:00000001FF
